:030000000280007B
:10800000787FE4F6D8FD75812402804702808CE4F5
:1080100093A3F8E493A34003F68001F208DFF48011
:1080200029E493A3F85407240CC8C333C4540F4461
:1080300020C8834004F456800146F6DFE4800B013B
:1080400002040810204080908134E47E019360BCDB
:10805000A3FF543F30E509541FFEE493A360010ED3
:10806000CF54C025E060A840B8E493A3FAE493A3FA
:10807000F8E493A3C8C582C8CAC583CAF0A3C8C51B
:1080800082C8CAC583CADFE9DEE780BE90E8037410
:1080900080F0E4F51CF51DF51EE4FFFEAD1C051C8B
:1080A00074082DF8E6F9E4FDFCE9751F00F520538E
:1080B0000180E990E8017003F080037401F090E81A
:1080C000027401F0E4F0A920E925E0F90DBD0001FA
:1080D0000CED64084C70D20FBF00010EEF64044E2B
:1080E00070BA1280FA051EE51E7002051DC39403C6
:1080F000E51D6480948040A18098E4F524F523F583
:1081000022F521E47F407E1FFDFCAB24AA23A92297
:10811000A821C312814B501BE4FAF9F8E52424018D
:10812000F524EA3523F523E93522F522E83521F552
:108130002180D02214088EF9DE86FFFFFFFF89869A
:10814000C78C000000000000000000EB9FF5F0EA83
:108150009E42F0E99D42F0EC6480C864809845F04E
:0181600022FC
:00000001FF
